{
  "_format": "hh-sol-artifact-1",
  "contractName": "QuestFacet",
  "sourceName": "contracts/facets/QuestFacet.sol",
  "abi": [
    {
      "anonymous": false,
      "inputs": [
        {
          "indexed": true,
          "internalType": "address",
          "name": "_playerAddress",
          "type": "address"
        },
        {
          "indexed": false,
          "internalType": "uint256",
          "name": "_id",
          "type": "uint256"
        }
      ],
      "name": "BeginQuesting",
      "type": "event"
    },
    {
      "anonymous": false,
      "inputs": [
        {
          "indexed": true,
          "internalType": "address",
          "name": "_playerAddress",
          "type": "address"
        },
        {
          "indexed": false,
          "internalType": "uint256",
          "name": "_id",
          "type": "uint256"
        }
      ],
      "name": "EndQuesting",
      "type": "event"
    },
    {
      "inputs": [
        {
          "internalType": "uint256",
          "name": "_tokenId",
          "type": "uint256"
        }
      ],
      "name": "endQuestGem",
      "outputs": [],
      "stateMutability": "nonpayable",
      "type": "function"
    },
    {
      "inputs": [
        {
          "internalType": "uint256",
          "name": "_tokenId",
          "type": "uint256"
        }
      ],
      "name": "endQuestGold",
      "outputs": [],
      "stateMutability": "nonpayable",
      "type": "function"
    },
    {
      "inputs": [
        {
          "internalType": "address",
          "name": "_address",
          "type": "address"
        }
      ],
      "name": "getGemBalance",
      "outputs": [
        {
          "internalType": "uint256",
          "name": "",
          "type": "uint256"
        }
      ],
      "stateMutability": "view",
      "type": "function"
    },
    {
      "inputs": [
        {
          "internalType": "address",
          "name": "_address",
          "type": "address"
        }
      ],
      "name": "getGoldBalance",
      "outputs": [
        {
          "internalType": "uint256",
          "name": "",
          "type": "uint256"
        }
      ],
      "stateMutability": "view",
      "type": "function"
    },
    {
      "inputs": [
        {
          "internalType": "uint256",
          "name": "_tokenId",
          "type": "uint256"
        }
      ],
      "name": "startQuestGem",
      "outputs": [],
      "stateMutability": "nonpayable",
      "type": "function"
    },
    {
      "inputs": [
        {
          "internalType": "uint256",
          "name": "_tokenId",
          "type": "uint256"
        }
      ],
      "name": "startQuestGold",
      "outputs": [],
      "stateMutability": "nonpayable",
      "type": "function"
    }
  ],
  "bytecode": "0x608060405234801561001057600080fd5b50610be5806100206000396000f3fe608060405234801561001057600080fd5b50600436106100625760003560e01c80633707caf2146100675780633fc0287f14610097578063929c2cc0146100b3578063a174d3c2146100e3578063e42ce3cf146100ff578063e6be6c661461011b575b600080fd5b610081600480360381019061007c91906109cd565b610137565b60405161008e9190610a13565b60405180910390f35b6100b160048036038101906100ac9190610a5a565b610149565b005b6100cd60048036038101906100c891906109cd565b6101a3565b6040516100da9190610a13565b60405180910390f35b6100fd60048036038101906100f89190610a5a565b6101b5565b005b61011960048036038101906101149190610a5a565b61020f565b005b61013560048036038101906101309190610a5a565b610269565b005b6000610142826102c3565b9050919050565b6101528161031a565b3373ffffffffffffffffffffffffffffffffffffffff167fcae7c1c63e65edc05144a6b48d8cb6d31d4f693030fd9aeb70a966faaad0f262826040516101989190610a13565b60405180910390a250565b60006101ae826104c8565b9050919050565b6101be8161051f565b3373ffffffffffffffffffffffffffffffffffffffff167f754ac03968a16df89a46742386b9770f63220c3d6eb2838f03971e18a1dba22a826040516102049190610a13565b60405180910390a250565b61021881610634565b3373ffffffffffffffffffffffffffffffffffffffff167fcae7c1c63e65edc05144a6b48d8cb6d31d4f693030fd9aeb70a966faaad0f2628260405161025e9190610a13565b60405180910390a250565b610272816107fc565b3373ffffffffffffffffffffffffffffffffffffffff167f754ac03968a16df89a46742386b9770f63220c3d6eb2838f03971e18a1dba22a826040516102b89190610a13565b60405180910390a250565b6000806102ce6108e3565b90508060000160008473ffffffffffffffffffffffffffffffffffffffff1673ffffffffffffffffffffffffffffffffffffffff16815260200190815260200160002054915050919050565b6000610324610910565b905060006103306108e3565b9050600061033c61093d565b90503373ffffffffffffffffffffffffffffffffffffffff1683600201600086815260200190815260200160002060009054906101000a900473ffffffffffffffffffffffffffffffffffffffff1673ffffffffffffffffffffffffffffffffffffffff16146103ab57600080fd5b600283600301600086815260200190815260200160002060020154146103d057600080fd5b6001816000016000868152602001908152602001600020546103f29190610ab6565b421015610434576040517f08c379a000000000000000000000000000000000000000000000000000000000815260040161042b90610b47565b60405180910390fd5b600083600301600086815260200190815260200160002060020181905550806000016000858152602001908152602001600020600090558160000160003373ffffffffffffffffffffffffffffffffffffffff1673ffffffffffffffffffffffffffffffffffffffff16815260200190815260200160002060008154809291906104bd90610b67565b919050555050505050565b6000806104d36108e3565b90508060010160008473ffffffffffffffffffffffffffffffffffffffff1673ffffffffffffffffffffffffffffffffffffffff16815260200190815260200160002054915050919050565b6000610529610910565b9050600061053561093d565b90506000826003016000858152602001908152602001600020600201541461055c57600080fd5b3373ffffffffffffffffffffffffffffffffffffffff1682600201600085815260200190815260200160002060009054906101000a900473ffffffffffffffffffffffffffffffffffffffff1673ffffffffffffffffffffffffffffffffffffffff16146105c957600080fd5b603c816004016000858152602001908152602001600020546105eb9190610ab6565b4210156105f757600080fd5b6002826003016000858152602001908152602001600020600201819055504281600101600085815260200190815260200160002081905550505050565b600061063e610910565b9050600061064a6108e3565b9050600061065661093d565b90503373ffffffffffffffffffffffffffffffffffffffff1683600201600086815260200190815260200160002060009054906101000a900473ffffffffffffffffffffffffffffffffffffffff1673ffffffffffffffffffffffffffffffffffffffff16146106c557600080fd5b600283600301600086815260200190815260200160002060020154146106ea57600080fd5b603c8160010160008681526020019081526020016000205461070c9190610ab6565b42101561074e576040517f08c379a000000000000000000000000000000000000000000000000000000000815260040161074590610b47565b60405180910390fd5b600083600301600086815260200190815260200160002060020181905550806001016000858152602001908152602001600020600090558160010160003373ffffffffffffffffffffffffffffffffffffffff1673ffffffffffffffffffffffffffffffffffffffff16815260200190815260200160002060008154809291906107d790610b67565b9190505550428160040160008681526020019081526020016000208190555050505050565b6000610806610910565b9050600061081261093d565b90506000826003016000858152602001908152602001600020600201541461083957600080fd5b3373ffffffffffffffffffffffffffffffffffffffff1682600201600085815260200190815260200160002060009054906101000a900473ffffffffffffffffffffffffffffffffffffffff1673ffffffffffffffffffffffffffffffffffffffff16146108a657600080fd5b6002826003016000858152602001908152602001600020600201819055504281600001600085815260200190815260200160002081905550505050565b6000807f2c89d74504b6ad8d4fbde22bc3474166bac5452a11195897f239d8bebe02d70790508091505090565b6000807f3cab9a070a0c61cd0ae9d9e9e2c0781e5ca8691bec4087e5a4701d5ac018dd4e90508091505090565b6000807ff76a8e66124dac83b46aecd7c4256d5158e69f6adf88592fd8146c79e007626e90508091505090565b600080fd5b600073ffffffffffffffffffffffffffffffffffffffff82169050919050565b600061099a8261096f565b9050919050565b6109aa8161098f565b81146109b557600080fd5b50565b6000813590506109c7816109a1565b92915050565b6000602082840312156109e3576109e261096a565b5b60006109f1848285016109b8565b91505092915050565b6000819050919050565b610a0d816109fa565b82525050565b6000602082019050610a286000830184610a04565b92915050565b610a37816109fa565b8114610a4257600080fd5b50565b600081359050610a5481610a2e565b92915050565b600060208284031215610a7057610a6f61096a565b5b6000610a7e84828501610a45565b91505092915050565b7f4e487b7100000000000000000000000000000000000000000000000000000000600052601160045260246000fd5b6000610ac1826109fa565b9150610acc836109fa565b9250828201905080821115610ae457610ae3610a87565b5b92915050565b600082825260208201905092915050565b7f6974277320746f6f206561726c7920746f2070756c6c206f7574000000000000600082015250565b6000610b31601a83610aea565b9150610b3c82610afb565b602082019050919050565b60006020820190508181036000830152610b6081610b24565b9050919050565b6000610b72826109fa565b91507fffffffffffffffffffffffffffffffffffffffffffffffffffffffffffffffff8203610ba457610ba3610a87565b5b60018201905091905056fea264697066735822122083466403f02ed73d3938bae1cd2d35e52e56a66b5c84d8b096129bac9de57d2e64736f6c63430008110033",
  "linkReferences": {},
  "deployedLinkReferences": {}
}