{
  "_format": "hh-sol-artifact-1",
  "contractName": "TrainFacet",
  "sourceName": "contracts/facets/TrainFacet.sol",
  "abi": [
    {
      "anonymous": false,
      "inputs": [
        {
          "indexed": true,
          "internalType": "address",
          "name": "_playerAddress",
          "type": "address"
        },
        {
          "indexed": false,
          "internalType": "uint256",
          "name": "_id",
          "type": "uint256"
        }
      ],
      "name": "BeginTraining",
      "type": "event"
    },
    {
      "anonymous": false,
      "inputs": [
        {
          "indexed": true,
          "internalType": "address",
          "name": "_playerAddress",
          "type": "address"
        },
        {
          "indexed": false,
          "internalType": "uint256",
          "name": "_id",
          "type": "uint256"
        }
      ],
      "name": "EndTraining",
      "type": "event"
    },
    {
      "inputs": [
        {
          "internalType": "uint256",
          "name": "_tokenId",
          "type": "uint256"
        }
      ],
      "name": "endTrainingCombat",
      "outputs": [],
      "stateMutability": "nonpayable",
      "type": "function"
    },
    {
      "inputs": [
        {
          "internalType": "uint256",
          "name": "_tokenId",
          "type": "uint256"
        }
      ],
      "name": "endTrainingMagic",
      "outputs": [],
      "stateMutability": "nonpayable",
      "type": "function"
    },
    {
      "inputs": [
        {
          "internalType": "uint256",
          "name": "_tokenId",
          "type": "uint256"
        }
      ],
      "name": "startTrainingCombat",
      "outputs": [],
      "stateMutability": "nonpayable",
      "type": "function"
    },
    {
      "inputs": [
        {
          "internalType": "uint256",
          "name": "_tokenId",
          "type": "uint256"
        }
      ],
      "name": "startTrainingMagic",
      "outputs": [],
      "stateMutability": "nonpayable",
      "type": "function"
    }
  ],
  "bytecode": "0x608060405234801561001057600080fd5b506109ab806100206000396000f3fe608060405234801561001057600080fd5b506004361061004c5760003560e01c80631a0df17614610051578063325a0dda1461006d578063a64df05d14610089578063d527644c146100a5575b600080fd5b61006b600480360381019061006691906107f6565b6100c1565b005b610087600480360381019061008291906107f6565b61011b565b005b6100a3600480360381019061009e91906107f6565b610175565b005b6100bf60048036038101906100ba91906107f6565b6101cf565b005b6100ca81610229565b3373ffffffffffffffffffffffffffffffffffffffff167f8edab42c3c8f9ef053463f00bd7620cb6af16d9d6a701df67beef87e618b1e7f826040516101109190610832565b60405180910390a250565b610124816103a1565b3373ffffffffffffffffffffffffffffffffffffffff167f697dd10d549e65a01bd5ff32cf8995ace2a3a46e225c0a123a8b1eb35dfe0ba78260405161016a9190610832565b60405180910390a250565b61017e816104cf565b3373ffffffffffffffffffffffffffffffffffffffff167f8edab42c3c8f9ef053463f00bd7620cb6af16d9d6a701df67beef87e618b1e7f826040516101c49190610832565b60405180910390a250565b6101d881610661565b3373ffffffffffffffffffffffffffffffffffffffff167f697dd10d549e65a01bd5ff32cf8995ace2a3a46e225c0a123a8b1eb35dfe0ba78260405161021e9190610832565b60405180910390a250565b6000610233610761565b9050600061023f61078e565b90503373ffffffffffffffffffffffffffffffffffffffff1682600201600085815260200190815260200160002060009054906101000a900473ffffffffffffffffffffffffffffffffffffffff1673ffffffffffffffffffffffffffffffffffffffff16146102ae57600080fd5b600182600301600085815260200190815260200160002060020154146102d357600080fd5b6078816000016000858152602001908152602001600020546102f5919061087c565b421015610337576040517f08c379a000000000000000000000000000000000000000000000000000000000815260040161032e9061090d565b60405180910390fd5b6000826003016000858152602001908152602001600020600201819055508060000160008481526020019081526020016000206000905581600301600084815260200190815260200160002060030160008154809291906103979061092d565b9190505550505050565b60006103ab610761565b905060006103b761078e565b9050600082600301600085815260200190815260200160002060020154146103de57600080fd5b3373ffffffffffffffffffffffffffffffffffffffff1682600201600085815260200190815260200160002060009054906101000a900473ffffffffffffffffffffffffffffffffffffffff1673ffffffffffffffffffffffffffffffffffffffff161461044b57600080fd5b60018160040160008581526020019081526020016000205461046d919061087c565b42101561047957600080fd5b600182600301600085815260200190815260200160002060020181905550428160010160008581526020019081526020016000208190555080600401600084815260200190815260200160002060009055505050565b60006104d9610761565b905060006104e561078e565b90503373ffffffffffffffffffffffffffffffffffffffff1682600201600085815260200190815260200160002060009054906101000a900473ffffffffffffffffffffffffffffffffffffffff1673ffffffffffffffffffffffffffffffffffffffff161461055457600080fd5b6001826003016000858152602001908152602001600020600201541461057957600080fd5b60018160010160008581526020019081526020016000205461059b919061087c565b4210156105dd576040517f08c379a00000000000000000000000000000000000000000000000000000000081526004016105d49061090d565b60405180910390fd5b60008260030160008581526020019081526020016000206002018190555080600101600084815260200190815260200160002060009055816003016000848152602001908152602001600020600601600081548092919061063d9061092d565b91905055504281600401600085815260200190815260200160002081905550505050565b600061066b610761565b9050600061067761078e565b90506000826003016000858152602001908152602001600020600201541461069e57600080fd5b3373ffffffffffffffffffffffffffffffffffffffff1682600201600085815260200190815260200160002060009054906101000a900473ffffffffffffffffffffffffffffffffffffffff1673ffffffffffffffffffffffffffffffffffffffff161461070b57600080fd5b600182600301600085815260200190815260200160002060020181905550428160000160008581526020019081526020016000208190555080600401600084815260200190815260200160002060009055505050565b6000807f3cab9a070a0c61cd0ae9d9e9e2c0781e5ca8691bec4087e5a4701d5ac018dd4e90508091505090565b6000807f69a36aa8a1def7c34163f21101855534226dbb17b620d65b1681d4d0b27f0b2e90508091505090565b600080fd5b6000819050919050565b6107d3816107c0565b81146107de57600080fd5b50565b6000813590506107f0816107ca565b92915050565b60006020828403121561080c5761080b6107bb565b5b600061081a848285016107e1565b91505092915050565b61082c816107c0565b82525050565b60006020820190506108476000830184610823565b92915050565b7f4e487b7100000000000000000000000000000000000000000000000000000000600052601160045260246000fd5b6000610887826107c0565b9150610892836107c0565b92508282019050808211156108aa576108a961084d565b5b92915050565b600082825260208201905092915050565b7f6974277320746f6f206561726c7920746f2070756c6c206f7574000000000000600082015250565b60006108f7601a836108b0565b9150610902826108c1565b602082019050919050565b60006020820190508181036000830152610926816108ea565b9050919050565b6000610938826107c0565b91507fffffffffffffffffffffffffffffffffffffffffffffffffffffffffffffffff820361096a5761096961084d565b5b60018201905091905056fea26469706673582212200631c936b6fbd90cceff26c8435c14820cc1b9cd4c8d88259ab51640d28a7d2e64736f6c63430008110033",
  "linkReferences": {},
  "deployedLinkReferences": {}
}